:020000040000FA
:060000000A128A110C280F
:10000800FE00030EF0000A08F1000A128A11722C91
:100018000A128A110F28FA01FB0183133D3084006C
:100028004F300A128A1184250A128A1183010A1292
:100038008A11F22983120313B7002730AD002D0867
:10004800B000DB292530380603192B282C2838283E
:100058003808AD00370884002D088313800001306C
:10006800AD002D08B707DB29B501B601B401412859
:1000780034150130AD002D08A607260884000A12A1
:100088008A1111240A128A11AD00AE012E08003A15
:1000980003194F2854282D08303A03193C285428AE
:1000A800260884000A128A1111240A128A110A12D7
:1000B8008A1165250A128A11031C63286428A4285A
:1000C80083120313B501B6010A30F2000030F300C1
:1000D800831203133608F5003508F4000A128A1152
:1000E800C4240A128A11730883120313B600720813
:1000F800B500260884000A128A1111240A128A11EE
:10010800D03EAD00FF3003180030AE002D08B50713
:100118000318B60A2E08B6070130AD002D08A60749
:10012800260884000A128A1111240A128A110A1256
:100138008A1165250A128A110318A328A428682899
:10014800013083120313A607FF30260784000A1222
:100158008A1111240A128A11B800AD00AE012E08C6
:10016800003A0319B828DB292D08003A0319ED29AC
:10017800643A0319C3280D3A0319C328DB29300848
:10018800840083130008B200840A0008B300023018
:10019800AD002D08B007B31FD228D328DC280330C0
:1001A800AD002D08B404B209B309B20A0319B30AA1
:1001B800B801B80A3808AD002D07013E84000A12BC
:1001C8008A1111240A128A11AE000A128A11112406
:1001D8000A128A11AF002F083302031DF5282E08D2
:1001E80032020318F828F928FA2804290130AD004A
:1001F8002D08B80705303806031D03290429DE2811
:1002080035083604031909290A2916293408033937
:1002180003190F2910291629FF30B5070318B60A44
:10022800FF30B6073608803A803C031D1D29350883
:1002380038020318202921292D298312031338088D
:10024800AD00AE012D08B5022E08031CB603B60298
:10025800312983120313B501B601341D3429352918
:1002680064293408033903193A293B2946292D30D2
:10027800AD00370884002D08831380000130AD00DD
:100288002D08B7073508360403194B294C2992293C
:100298003030AD00370884002D088313800001300A
:1002A800AD002D08B707FF30B5070318B60AFF30B1
:1002B800B60735083604031D622963294C2992299B
:1002C80035083604031969296A2981292030AD00C7
:1002D800370884002D08831380000130AD002D08F5
:1002E800B707FF30B5070318B60AFF30B607350859
:1002F8003604031D802981296A2934080339031922
:100308008629872992292D30AD00370884002D08C9
:10031800831380000130AD002D08B7073808AD0001
:100328002D08B100D2290A30A0000030A100310800
:10033800AD002D07013E84000A128A1111240A1209
:100348008A11F2000A128A1111240A128A11F30082
:100358003308F5003208F4000A128A1158230A12E9
:100368008A11730883120313A3007208A2000A12E9
:100378008A119C230A128A11831203132008303E23
:10038800AE002E08B8003808AD00370884002D08E4
:10039800831380000130AD002D08B707FF30AD0092
:1003A8002D08B107310A031DDA29DB299729013005
:1003B800A607FF30260784000A128A1111240A12A0
:1003C8008A11AD002D08B8003808031DEC29ED2965
:1003D800262837088400831380010800FF3083161D
:1003E800031386008701880181138B170B170C14E0
:1003F8008312031390101016901695308E00E73074
:100408008F001010831603131F109F141F159F15BC
:10041800831203131F139F13831603139F139E0145
:10042800831203139E011F140710071187110A1264
:100438008A11A2220A128A110A128A1177250A122F
:100448008A1164008312031306182B2A2C2A412AC6
:100458001014071407150B3083120313BC00263041
:10046800BB005D30BA00BA0B372ABB0B372ABC0B6E
:10047800372A83120313071007118618442A452ABE
:10048800462A10100A128A119D240A128A11831210
:1004980003139F111F129F121F150F30831203138E
:1004A800BA00BA0B552A582A831203131E08BA0039
:1004B800BB013A08BD003B08BE003D083E040319D5
:1004C800662A672A692A8711842A3D083E04031D83
:1004D8006E2A6F2A842A4208803AFF0080307F0201
:1004E800031D782A0330410203187B2A7C2A842AB8
:1004F8008312031387150A128A1130250A128A11EA
:10050800831203130619892A8A2A252A10108711AB
:1005180007100711BF01C001C101C201C301C40115
:100528000A128A1177250A128A110A128A119D2441
:100538000A128A11252A0A128A110C2800300A1276
:100548008A110E250A128A118230F700DD30F60072
:10055800F60BAC2AF70BAC2AB12A03300A128A111F
:100568004B250A128A112130F7007630F600F60B77
:10057800BB2AF70BBB2A000003300A128A114B254D
:100588000A128A114830F7006C30F600F60BCA2AB6
:10059800F70BCA2A000003300A128A114B250A12E7
:1005A8008A1102300A128A114B250A128A11023066
:1005B8000A128A114B250A128A1108300A128A1166
:1005C8004B250A128A1100300A128A114B250A1289
:1005D8008A110C300A128A114B250A128A1100302E
:1005E8000A128A114B250A128A1106300A128A1138
:1005F8004B250A128A11080083120313A000200356
:10060800031D072B082B2D2B76087F3EF700770854
:10061800A3002308F70004300310F70CFF3E031D66
:10062800102B7708F8007808A10023080F39F70085
:100638007708A20021080A128A114B250A128A118A
:100648008312031322080A128A114B250A128A11EF
:10065800572B02302006031D322B332B572B7608DD
:10066800BF3EF7007708A3002308F7000430031003
:10067800F70CFF3E031D3B2B7708F8007808A10014
:1006880023080F39F7007708A20021080A128A11F7
:100698004B250A128A118312031322080A128A119F
:1006A8004B250A128A110800F701F8017208730431
:1006B80003195F2B602B972BF901F90A6E2B013078
:1006C8000310F20DF30DFF3E031D642B0130F600FD
:1006D8007608F907F31F712B722B632B0130031077
:1006E800F70DF80DFF3E031D732B73087502031DEC
:1006F8007F2B72087402031C822B832B8A2B7208AF
:10070800F4027308031CF503F50277140130031093
:10071800F30CF20CFF3E031D8B2B0130F902031D75
:10072800962B972B722B7808F3007708F2000800B5
:1007380083120313200821040319A32BA42BD32B02
:10074800A501A50AB22B01300310A00DA10DFF3E93
:10075800031DA82B0130A4002408A507A11FB52B51
:10076800B62BA72B21082302031DBC2B200822022D
:10077800031CBF2BC02BC62B2008A2022108031C78
:10078800A303A30201300310A10CA00CFF3E031D1C
:10079800C72B0130A502031DD22BD32BB62B230860
:1007A800A1002208A0000800F60076080F39F3001F
:1007B8007308F4007608F039F3007308F500831223
:1007C800031308157508F30004300310F30CFF3EFB
:1007D800031DE92B73080A128A110E250A128A11C1
:1007E8008312031388154230F300F30BF92B000032
:1007F80083120313881174080A128A110E250A122B
:100808008A118312031388154230F300F30B0A2C64
:100818000000831203138811080004308A000408BA
:10082800840A82070034013400340A340034643402
:100838000034E83403341034273431342D34203470
:1008480020342034203420342034253430343234D9
:1008580064343A3425343034323464343A34253408
:100868003034323464340034413474346C34653494
:1008780074346134203444345134003401308312E8
:100888000313BF070318C00A0030C00764303F06CF
:100898004004031D502C512C712CBF01C0010130A4
:1008A800C1070318C20A0030C2073C30410642049F
:1008B800031D5F2C602C712CC101C2010130C307DC
:1008C8000318C40A0030C4073C3043064404031D1F
:1008D8006E2C6F2C712CC301C40108008312031302
:1008E8000C1C772C782C962C0C1095308E00E73049
:1008F8008F000A128A1142240A128A110130FA075B
:100908000318FB0A0030FB0764307A067B04031DDA
:100918008E2C8F2C962C0A128A1142240A128A11C4
:10092800FA01FB0171088A00700E8300FE0E7E0E2C
:1009380009000B3083120313B9003908A6004408D4
:10094800A8004308A7004208AA004108A9004008D7
:10095800AC003F08AB0045300A128A111E200A126B
:100968008A11F601F60A01300A128A1100230A12C6
:100978008A1145300A128A11E9240A128A110800DC
:10098800F601F701721CC92CCA2CD02C7408F60782
:100998000318F70A7508F70701300310F40DF50D71
:1009A800FF3E031DD12C01300310F30CF20CFF3E67
:1009B800031DD82C72087304031DE32CE42CC62CE9
:1009C8007708F3007608F200080083120313A200E8
:1009D800A001A101022D20082207F7007708840052
:1009E80000080A128A11D8230A128A1101308312C8
:1009F8000313A0070318A10A0030A1072008220743
:100A0800F7007708840083130008031D0C2D0D2DB3
:100A1800EF2C0800F200721C122D132D172D8312D3
:100A2800031308161A2D831203130812F21C1D2D26
:100A38001E2D202D8816212D8812721D242D252D5E
:100A4800272D0817282D0813F21D2B2D2C2D2E2DA0
:100A580088172F2D88130800223083120313B9003A
:100A68003908A60045300A128A111E200A128A1176
:100A7800F601F60A02300A128A1100230A128A11B4
:100A880045300A128A11E9240A128A110800F50071
:100A980083120313081175080A128A110E250A1207
:100AA8008A118312031388151A30F400F830F30002
:100AB800F30B5C2DF40B5C2D0000831203138811DB
:100AC8000800F300F2013A30730203186C2D6D2D03
:100AD800752D30307302031C722D732D752DF201A4
:100AE800F20A720C080000300A128A114B250A1209
:100AF8008A1101300A128A114B250A128A1108003C
:100B080064008001840A0406031900340406852D54
:02400E00F63F7B
:00000001FF
