:020000040000FA
:060000000A128A110C280F
:10000800FE00030EF0000A08F1000A128A11AE2B56
:100018000A128A110F28FB0183133C3084004E30EA
:100028000A128A11F5240A128A1183010A128A1106
:10003800A72A83120313B6002630AC002C08AF00A1
:10004800DA292530370603192A282B2837283708B4
:10005800AC00360884002C08831380000130AC0003
:100068002C08B607DA29B401B501B30140283315C5
:100078000130AC002C08A507250884000A128A1153
:10008800AA240A128A11AC00AD012D08003A0319FE
:100098004E2853282C08303A03193B2853282508A2
:1000A80084000A128A11AA240A128A110A128A11D1
:1000B800E3240A128A11031C62286328A3288312E6
:1000C8000313B401B5010A30F2000030F3008312C3
:1000D80003133508F5003408F4000A128A11422483
:1000E8000A128A11730883120313B5007208B40048
:1000F800250884000A128A11AA240A128A11D03EFD
:10010800AC00FF3003180030AD002C08B40703180A
:10011800B50A2D08B5070130AC002C08A50725083D
:1001280084000A128A11AA240A128A110A128A1150
:10013800E3240A128A110318A228A3286728013089
:1001480083120313A507FF30250784000A128A11BA
:10015800AA240A128A11B700AC00AD012D08003A92
:100168000319B728DA292C08003A0319EC29643A4C
:100178000319C2280D3A0319C228DA292F08840066
:1001880083130008B100840A0008B2000230AC00F2
:100198002C08AF07B21FD128D228DB280330AC00C7
:1001A8002C08B304B109B209B10A0319B20AB7019C
:1001B800B70A3708AC002C07013E84000A128A11DE
:1001C800AA240A128A11AD000A128A11AA240A1254
:1001D8008A11AE002E083202031DF4282D083102C0
:1001E8000318F728F828F92803290130AC002C084F
:1001F800B70705303706031D02290329DD2834080F
:10020800350403190829092915293308033903195D
:100218000E290F291529FF30B4070318B50AFF3036
:10022800B5073508803A803C031D1C29340837027D
:1002380003181F2920292C29831203133708AC001F
:10024800AD012C08B4022D08031CB503B5023029F2
:1002580083120313B401B501331D332934296329EB
:1002680033080339031939293A2945292D30AC00B7
:10027800360884002C08831380000130AC002C0859
:10028800B6073408350403194A294B299129303017
:10029800AC00360884002C08831380000130AC00C1
:1002A8002C08B607FF30B4070318B50AFF30B507A6
:1002B80034083504031D612962294B299129340822
:1002C800350403196829692980292030AC003608CB
:1002D80084002C08831380000130AC002C08B6077A
:1002E800FF30B4070318B50AFF30B50734083504E2
:1002F800031D7F29802969293308033903198529B2
:10030800862991292D30AC00360884002C088313E7
:1003180080000130AC002C08B6073708AC002C0868
:10032800B000D1290A30A0000030A1003008AC008C
:100338002C07013E84000A128A11AA240A128A1183
:10034800F2000A128A11AA240A128A11F30032084A
:10035800F5003108F4000A128A11F5220A128A11EE
:10036800730883120313A3007208A2000A128A11E9
:1003780039230A128A11831203132008303EAD0074
:100388002D08B7003708AC00360884002C08831302
:1003980080000130AC002C08B607FF30AC002C08F8
:1003A800B007300A031DD929DA2996290130A50793
:1003B800FF30250784000A128A11AA240A128A111A
:1003C800AC002C08B7003708031DEB29EC292528B9
:1003D8003608840083138001080000300A128A114D
:1003E80067240A128A118230F700DD30F600F60B16
:1003F800FB29F70BFB29002A03300A128A11C924AA
:100408000A128A112130F7007630F600F60B0A2A14
:10041800F70B0A2A000003300A128A11C9240A12AB
:100428008A114830F7006C30F600F60B192AF70BE2
:10043800192A000003300A128A11C9240A128A11E3
:1004480002300A128A11C9240A128A1102300A12C9
:100458008A11C9240A128A1108300A128A11C92479
:100468000A128A1100300A128A11C9240A128A1142
:100478000C300A128A11C9240A128A1100300A1291
:100488008A11C9240A128A1106300A128A11C9244B
:100498000A128A11080083120313A0002003031D07
:1004A800562A572A7C2A76087F3EF7007708A30049
:1004B8002308F70004300310F70CFF3E031D5F2AE2
:1004C8007708F8007808A10023080F39F7007708A3
:1004D800A20021080A128A11C9240A128A11831259
:1004E800031322080A128A11C9240A128A11A62A99
:1004F80002302006031D812A822AA62A7608BF3EDA
:10050800F7007708A3002308F70004300310F70C5E
:10051800FF3E031D8A2A7708F8007808A1002308FF
:100528000F39F7007708A20021080A128A11C92496
:100538000A128A118312031322080A128A11C92483
:100548000A128A110800FF308316031386008701F8
:10055800880181138B170B170C1483120313901047
:10056800101690162C308E00CF308F001014071004
:10057800071187110A128A11F1210A128A118312AE
:1005880003130618C82AC92AEC2A071407150430C9
:1005980083120313BB00CF30BA000130B900B90B86
:1005A800D32ABA0BD32ABB0BD32A831203130710FF
:1005B80007111A3083120313BB005E30BA006D3086
:1005C800B900B90BE52ABA0BE52ABB0BE52AEC2AD8
:1005D8000A128A1117240A128A11C32A0A128A11C6
:1005E8000C28F701F801720873040319FC2AFD2A84
:1005F800342BF901F90A0B2B01300310F20DF30D1E
:10060800FF3E031D012B0130F6007608F907F31FA2
:100618000E2B0F2B002B01300310F70DF80DFF3EAA
:10062800031D102B73087502031D1C2B720874021E
:10063800031C1F2B202B272B7208F4027308031CA2
:10064800F503F502771401300310F30CF20CFF3EAA
:10065800031D282B0130F902031D332B342B0F2BDC
:100668007808F3007708F2000800831203132008C3
:1006780021040319402B412B702BA401A40A4F2BF2
:1006880001300310A00DA10DFF3E031D452B0130C5
:10069800FA007A08A407A11F522B532B442B2108D8
:1006A8002302031D592B20082202031C5C2B5D2BFF
:1006B800632B2008A2022108031CA303A302013014
:1006C8000310A10CA00CFF3E031D642B0130A402F3
:1006D800031D6F2B702B532B2308A1002208A000A9
:1006E8000800F60076080F39F3007308F40076085E
:1006F800F039F3007308F500831203130815750821
:10070800F30004300310F30CFF3E031D862B73081F
:100718000A128A1167240A128A1183120313881590
:100728004230F300F30B962B000083120313881159
:1007380074080A128A1167240A128A118312031391
:1007480088154230F300F30BA72B00008312031324
:1007580088110800831203130C1CB32BB42BE02B55
:100768000C102C308E00CF308F000A128A11E7232C
:100778000A128A11013083120313BC070318BD0A39
:100788000030BD0764303C063D04031DCC2BCD2B47
:10079800E02B0A128A11E7230A128A110130FB069C
:1007A8007B18D72BDB2B831203138715DE2B8312C1
:1007B80003138711BC01BD0171088A00700E830004
:1007C800FE0E7E0E0900013083120313BE070318C4
:1007D800BF0A0030BF0764303E063F04031DF52BF7
:1007E800F62B162CBE01BF010130C0070318C10A41
:1007F8000030C1073C3040064104031D042C052C81
:10080800162CC001C1010130C2070318C30A003009
:10081800C3073C3042064304031D132C142C162C2A
:10082800C201C30108000B3083120313B800380853
:10083800A5004308A7004208A6004108A9004008EF
:10084800A8003F08AB003E08AA0044300A128A11EB
:100858001D200A128A11053083120313B8003808C4
:10086800F60001300A128A114F220A128A11443006
:100878000A128A1189240A128A110800F601F7015E
:10088800721C472C482C4E2C7408F6070318F70ADC
:100898007508F70701300310F40DF50DFF3E031D31
:1008A8004F2C01300310F30CF20CFF3E031D562CA5
:1008B80072087304031D612C622C442C7708F30022
:1008C8007608F2000800F200721C6B2C6C2C702C5D
:1008D800831203130816732C831203130812F21CD5
:1008E800762C772C792C88167A2C8812721D7D2C00
:1008F8007E2C802C0817812C0813F21D842C852C43
:10090800872C8817882C88130800FA00F801F90149
:100918009E2C78087A07F7007708840000080A12E6
:100928008A1175230A128A110130F8070318F90A87
:100938000030F90778087A07F700770884008313EE
:100948000008031DA82CA92C8D2C080004308A004F
:100958000408840A82070034013400340A3400345D
:1009680064340034E8340334103427342534303404
:10097800323464343A3425343034323464343A34DA
:1009880025343034323464340034F50083120313D0
:10099800081175080A128A1167240A128A1183122B
:1009A800031388151A30F400F830F300F30BDA2C2F
:1009B800F40BDA2C00008312031388110800F300EB
:1009C800F2013A3073020318EA2CEB2CF32C303086
:1009D8007302031CF02CF12CF32CF201F20A720CB6
:1009E800080064008001840A040603190034040620
:0209F800F62CDB
:02400E00F63F7B
:00000001FF
