:020000040000FA
:060000000A128A110C280F
:10000800FE00030EF0000A08F1000A128A11A52B5F
:100018000A128A110F28FB0183133C3084004E30EA
:100028000A128A11FD240A128A1183010A128A11FE
:10003800A72A83120313B6002630AC002C08AF00A1
:10004800DA292530370603192A282B2837283708B4
:10005800AC00360884002C08831380000130AC0003
:100068002C08B607DA29B401B501B30140283315C5
:100078000130AC002C08A507250884000A128A1153
:100088000E240A128A11AC00AD012D08003A03199A
:100098004E2853282C08303A03193B2853282508A2
:1000A80084000A128A110E240A128A110A128A116D
:1000B800DE240A128A11031C62286328A3288312EB
:1000C8000313B401B5010A30F2000030F3008312C3
:1000D80003133508F5003408F4000A128A115C2469
:1000E8000A128A11730883120313B5007208B40048
:1000F800250884000A128A110E240A128A11D03E99
:10010800AC00FF3003180030AD002C08B40703180A
:10011800B50A2D08B5070130AC002C08A50725083D
:1001280084000A128A110E240A128A110A128A11EC
:10013800DE240A128A110318A228A328672801308E
:1001480083120313A507FF30250784000A128A11BA
:100158000E240A128A11B700AC00AD012D08003A2E
:100168000319B728DA292C08003A0319EC29643A4C
:100178000319C2280D3A0319C228DA292F08840066
:1001880083130008B100840A0008B2000230AC00F2
:100198002C08AF07B21FD128D228DB280330AC00C7
:1001A8002C08B304B109B209B10A0319B20AB7019C
:1001B800B70A3708AC002C07013E84000A128A11DE
:1001C8000E240A128A11AD000A128A110E240A128C
:1001D8008A11AE002E083202031DF4282D083102C0
:1001E8000318F728F828F92803290130AC002C084F
:1001F800B70705303706031D02290329DD2834080F
:10020800350403190829092915293308033903195D
:100218000E290F291529FF30B4070318B50AFF3036
:10022800B5073508803A803C031D1C29340837027D
:1002380003181F2920292C29831203133708AC001F
:10024800AD012C08B4022D08031CB503B5023029F2
:1002580083120313B401B501331D332934296329EB
:1002680033080339031939293A2945292D30AC00B7
:10027800360884002C08831380000130AC002C0859
:10028800B6073408350403194A294B299129303017
:10029800AC00360884002C08831380000130AC00C1
:1002A8002C08B607FF30B4070318B50AFF30B507A6
:1002B80034083504031D612962294B299129340822
:1002C800350403196829692980292030AC003608CB
:1002D80084002C08831380000130AC002C08B6077A
:1002E800FF30B4070318B50AFF30B50734083504E2
:1002F800031D7F29802969293308033903198529B2
:10030800862991292D30AC00360884002C088313E7
:1003180080000130AC002C08B6073708AC002C0868
:10032800B000D1290A30A0000030A1003008AC008C
:100338002C07013E84000A128A110E240A128A111F
:10034800F2000A128A110E240A128A11F3003208E6
:10035800F5003108F4000A128A11EC220A128A11F7
:10036800730883120313A3007208A2000A128A11E9
:1003780030230A128A11831203132008303EAD007D
:100388002D08B7003708AC00360884002C08831302
:1003980080000130AC002C08B607FF30AC002C08F8
:1003A800B007300A031DD929DA2996290130A50793
:1003B800FF30250784000A128A110E240A128A11B6
:1003C800AC002C08B7003708031DEB29EC292528B9
:1003D8003608840083138001080000300A128A114D
:1003E80081240A128A118230F700DD30F600F60BFC
:1003F800FB29F70BFB29002A03300A128A11C424AF
:100408000A128A112130F7007630F600F60B0A2A14
:10041800F70B0A2A000003300A128A11C4240A12B0
:100428008A114830F7006C30F600F60B192AF70BE2
:10043800192A000003300A128A11C4240A128A11E8
:1004480002300A128A11C4240A128A1102300A12CE
:100458008A11C4240A128A1108300A128A11C42483
:100468000A128A1100300A128A11C4240A128A1147
:100478000C300A128A11C4240A128A1100300A1296
:100488008A11C4240A128A1106300A128A11C42455
:100498000A128A11080083120313A0002003031D07
:1004A800562A572A7C2A76087F3EF7007708A30049
:1004B8002308F70004300310F70CFF3E031D5F2AE2
:1004C8007708F8007808A10023080F39F7007708A3
:1004D800A20021080A128A11C4240A128A1183125E
:1004E800031322080A128A11C4240A128A11A62A9E
:1004F80002302006031D812A822AA62A7608BF3EDA
:10050800F7007708A3002308F70004300310F70C5E
:10051800FF3E031D8A2A7708F8007808A1002308FF
:100528000F39F7007708A20021080A128A11C4249B
:100538000A128A118312031322080A128A11C42488
:100548000A128A110800FF308316031386008701F8
:10055800880181138B170B170C1483120313901047
:100568001016901695308E00E7308F001014071083
:10057800071187110A128A11F1210A128A110A1227
:100588008A11F0240A128A116400831203130618D0
:10059800CE2ACF2AE32A071407150430831203133F
:1005A800BB00CF30BA000130B900B90BD92ABA0B59
:1005B800D92ABB0BD92A83120313071007110A1271
:1005C8008A1135240A128A11C82A0A128A110C289B
:1005D800F701F801720873040319F32AF42A2B2B84
:1005E800F901F90A022B01300310F20DF30DFF3E59
:1005F800031DF82A0130F6007608F907F31F052BCA
:10060800062BF72A01300310F70DF80DFF3E031DE6
:10061800072B73087502031D132B72087402031C41
:10062800162B172B1E2B7208F4027308031CF503F4
:10063800F502771401300310F30CF20CFF3E031D92
:100648001F2B0130F902031D2A2B2B2B062B7808B0
:10065800F3007708F200080083120313200821042E
:100668000319372B382B672BA401A40A462B01301A
:100678000310A00DA10DFF3E031D3C2B0130FA0015
:100688007A08A407A11F492B4A2B3B2B21082302D8
:10069800031D502B20082202031C532B542B5A2BCA
:1006A8002008A2022108031CA303A302013003109F
:1006B800A10CA00CFF3E031D5B2B0130A402031DFF
:1006C800662B672B4A2B2308A1002208A0000800EC
:1006D800F60076080F39F3007308F4007608F0394D
:1006E800F3007308F5008312031308157508F30067
:1006F80004300310F30CFF3E031D7D2B73080A1210
:100708008A1181240A128A11831203138815423030
:10071800F300F30B8D2B0000831203138811740868
:100728000A128A1181240A128A1183120313881566
:100738004230F300F30B9E2B000083120313881141
:100748000800831203130C1CAA2BAB2BD72B0C10FD
:1007580095308E00E7308F000A128A11DE230A12C4
:100768008A11013083120313BC070318BD0A003035
:10077800BD0764303C063D04031DC32BC42BD72B97
:100788000A128A11DE230A128A110130FB067B182D
:10079800CE2BD22B831203138715D52B8312031369
:1007A8008711BC01BD0171088A00700E8300FE0E1E
:1007B8007E0E0900013083120313BE070318BF0A17
:1007C8000030BF0764303E063F04031DEC2BED2BC1
:1007D8000D2CBE01BF010130C0070318C10A00304B
:1007E800C1073C3040064104031DFB2BFC2B0D2C9C
:1007F800C001C1010130C2070318C30A0030C30792
:100808003C3042064304031D0A2C0B2C0D2CC2015C
:10081800C301080004308A000408840A82070034EF
:10082800013400340A34003464340034E8340334C6
:100838001034273431342D342034203420342034FB
:100848002034203425343034323464343A34253476
:100858003034323464343A34253430343234643405
:1008680000340B3083120313B8003808A50043087E
:10087800A7004208A6004108A9004008A8003F08B0
:10088800AB003E08AA0044300A128A111D200A1241
:100898008A11F601F60A01300A128A114F220A1249
:1008A8008A1144300A128A11A3240A128A110800F4
:1008B800F601F701721C612C622C682C7408F6078B
:1008C8000318F70A7508F70701300310F40DF50D42
:1008D800FF3E031D692C01300310F30CF20CFF3EA0
:1008E800031D702C72087304031D7B2C7C2C5E2C5A
:1008F8007708F3007608F2000800F200721C852CD5
:10090800862C8A2C8312031308168D2C831203134A
:100918000812F21C902C912C932C8816942C881277
:10092800721D972C982C9A2C08179B2C0813F21DD3
:100938009E2C9F2CA12C8817A22C88130800FA0043
:10094800F801F901B82C78087A07F70077088400CD
:1009580000080A128A116C230A128A110130F8075A
:100968000318F90A0030F90778087A07F7007708BA
:10097800840083130008031DC22CC32CA72C080075
:10098800F50083120313081175080A128A118124CD
:100998000A128A118312031388151A30F400F830EA
:1009A800F300F30BD52CF40BD52C000083120313A2
:1009B80088110800F300F2013A3073020318E52C9D
:1009C800E62CEE2C30307302031CEB2CEC2CEE2CB6
:1009D800F201F20A720C080000300A128A11C424CB
:1009E8000A128A1101300A128A11C4240A128A11C1
:1009F800080064008001840A040603190034040610
:020A0800FE2CC2
:02400E00F63F7B
:00000001FF
