:020000040000FA
:060000000A128A110C280F
:10000800FE00030EF0000A08F1000A128A110C2CF7
:100018000A128A110F28FB0183133C3084005030E8
:100028000A128A112A250A128A1183010A128A11D0
:10003800F12983120313B6002630AC002C08AF0058
:10004800DA292530370603192A282B2837283708B4
:10005800AC00360884002C08831380000130AC0003
:100068002C08B607DA29B401B501B30140283315C5
:100078000130AC002C08A507250884000A128A1153
:100088003B240A128A11AC00AD012D08003A03196D
:100098004E2853282C08303A03193B2853282508A2
:1000A80084000A128A113B240A128A110A128A1140
:1000B8000B250A128A11031C62286328A3288312BD
:1000C8000313B401B5010A30F2000030F3008312C3
:1000D80003133508F5003408F4000A128A1189243C
:1000E8000A128A11730883120313B5007208B40048
:1000F800250884000A128A113B240A128A11D03E6C
:10010800AC00FF3003180030AD002C08B40703180A
:10011800B50A2D08B5070130AC002C08A50725083D
:1001280084000A128A113B240A128A110A128A11BF
:100138000B250A128A110318A228A3286728013060
:1001480083120313A507FF30250784000A128A11BA
:100158003B240A128A11B700AC00AD012D08003A01
:100168000319B728DA292C08003A0319EC29643A4C
:100178000319C2280D3A0319C228DA292F08840066
:1001880083130008B100840A0008B2000230AC00F2
:100198002C08AF07B21FD128D228DB280330AC00C7
:1001A8002C08B304B109B209B10A0319B20AB7019C
:1001B800B70A3708AC002C07013E84000A128A11DE
:1001C8003B240A128A11AD000A128A113B240A1232
:1001D8008A11AE002E083202031DF4282D083102C0
:1001E8000318F728F828F92803290130AC002C084F
:1001F800B70705303706031D02290329DD2834080F
:10020800350403190829092915293308033903195D
:100218000E290F291529FF30B4070318B50AFF3036
:10022800B5073508803A803C031D1C29340837027D
:1002380003181F2920292C29831203133708AC001F
:10024800AD012C08B4022D08031CB503B5023029F2
:1002580083120313B401B501331D332934296329EB
:1002680033080339031939293A2945292D30AC00B7
:10027800360884002C08831380000130AC002C0859
:10028800B6073408350403194A294B299129303017
:10029800AC00360884002C08831380000130AC00C1
:1002A8002C08B607FF30B4070318B50AFF30B507A6
:1002B80034083504031D612962294B299129340822
:1002C800350403196829692980292030AC003608CB
:1002D80084002C08831380000130AC002C08B6077A
:1002E800FF30B4070318B50AFF30B50734083504E2
:1002F800031D7F29802969293308033903198529B2
:10030800862991292D30AC00360884002C088313E7
:1003180080000130AC002C08B6073708AC002C0868
:10032800B000D1290A30A0000030A1003008AC008C
:100338002C07013E84000A128A113B240A128A11F2
:10034800F2000A128A113B240A128A11F3003208B9
:10035800F5003108F4000A128A1123230A128A11BF
:10036800730883120313A3007208A2000A128A11E9
:1003780067230A128A11831203132008303EAD0046
:100388002D08B7003708AC00360884002C08831302
:1003980080000130AC002C08B607FF30AC002C08F8
:1003A800B007300A031DD929DA2996290130A50793
:1003B800FF30250784000A128A113B240A128A1189
:1003C800AC002C08B7003708031DEB29EC292528B9
:1003D80036088400831380010800FF308316031356
:1003E80086008701880181138B170B170C14831261
:1003F800031390101016901695308E00E7308F007A
:100408001010831603131F109F141F159F158312B6
:1004180003131F139F13831603139F139E01831245
:1004280003139E011F140710071187110A128A115E
:100438006D220A128A110A128A111D250A128A11BE
:1004480064008312031306182A2A2B2A402A101440
:1004580007140715083083120313BB009D30BA0038
:100468000530B900B90B362ABA0B362ABB0B362A27
:1004780083120313071007118618432A442A452AB2
:1004880010100A128A1162240A128A1183120313A5
:100498009F111F129F121F150F3083120313B900EB
:1004A800B90B542A572A831203131E08B900BA013C
:1004B8003908BC003A08BD003C083D04031D652A04
:1004C800662A682A8715242A8711242A0A128A117B
:1004D8000C2800300A128A11AE240A128A118230BE
:1004E800F700DD30F600F60B772AF70B772A7C2A1F
:1004F80003300A128A11F1240A128A112130F700F6
:100508007630F600F60B862AF70B862A00000330B1
:100518000A128A11F1240A128A114830F7006C3045
:10052800F600F60B952AF70B952A000003300A12FD
:100538008A11F1240A128A1102300A128A11F1244E
:100548000A128A1102300A128A11F1240A128A1137
:1005580008300A128A11F1240A128A1100300A128C
:100568008A11F1240A128A110C300A128A11F12414
:100578000A128A1100300A128A11F1240A128A1109
:1005880006300A128A11F1240A128A11080083120D
:100598000313A0002003031DD22AD32AF82A7608C1
:1005A8007F3EF7007708A3002308F7000430031004
:1005B800F70CFF3E031DDB2A7708F8007808A10036
:1005C80023080F39F7007708A20021080A128A11B8
:1005D800F1240A128A118312031322080A128A11BB
:1005E800F1240A128A11222B02302006031DFD2A4B
:1005F800FE2A222B7608BF3EF7007708A3002308BF
:10060800F70004300310F70CFF3E031D062B770894
:10061800F8007808A10023080F39F7007708A2002E
:1006280021080A128A11F1240A128A11831203136B
:1006380022080A128A11F1240A128A110800F70105
:10064800F8017208730403192A2B2B2B622BF9016A
:10065800F90A392B01300310F20DF30DFF3E031D8B
:100668002F2B0130F6007608F907F31F3C2B3D2BA2
:100678002E2B01300310F70DF80DFF3E031D3E2B06
:1006880073087502031D4A2B72087402031C4D2B54
:100698004E2B552B7208F4027308031CF503F50260
:1006A800771401300310F30CF20CFF3E031D562B98
:1006B8000130F902031D612B622B3D2B7808F300F2
:1006C8007708F20008008312031320082104031995
:1006D8006E2B6F2B9E2BA401A40A7D2B01300310D7
:1006E800A00DA10DFF3E031D732B0130FA007A08FF
:1006F800A407A11F802B812B722B21082302031D25
:10070800872B20082202031C8A2B8B2B912B200875
:10071800A2022108031CA303A30201300310A10CA9
:10072800A00CFF3E031D922B0130A402031D9D2B3C
:100738009E2B812B2308A1002208A0000800F600A8
:1007480076080F39F3007308F4007608F039F300DF
:100758007308F5008312031308157508F3000430B5
:100768000310F30CFF3E031DB42B73080A128A1101
:10077800AE240A128A118312031388154230F3003B
:10078800F30BC42B000083120313881174080A1298
:100798008A11AE240A128A11831203138815423073
:1007A800F300F30BD52B0000831203138811080004
:1007B800013083120313C0070318C10A0030C107B0
:1007C800643040064104031DEA2BEB2B0B2CC001BF
:1007D800C1010130C2070318C30A0030C3073C3007
:1007E80042064304031DF92BFA2B0B2CC201C3014B
:1007F8000130C4070318C50A0030C5073C30440659
:100808004504031D082C092C0B2CC401C501080044
:10081800831203130C1C112C122C342C0C10953041
:100828008E00E7308F000A128A11DC230A128A111F
:10083800013083120313BE070318BF0A0030BF0735
:1008480064303E063F04031D2A2C2B2C342C0A123C
:100858008A11DC230A128A1183120313BE01BF0115
:1008680071088A00700E8300FE0E7E0E09000430A7
:100878008A000408840A82070034013400340A34E8
:10088800003464340034E834033410342734313409
:100898002D3420342034203420342034203425349E
:1008A8003034323464343A342534303432346434B5
:1008B8003A34253430343234643400340B30831203
:1008C8000313B8003808A5004508A7004408A60087
:1008D8004308A9004208A8004108AB004008AA0044
:1008E80046300A128A111D200A128A11F601F60AE8
:1008F80001300A128A11CB220A128A1146300A12D2
:100908008A11D0240A128A110800F601F701721C14
:100918008E2C8F2C952C7408F6070318F70A750887
:10092800F70701300310F40DF50DFF3E031D962C5B
:1009380001300310F30CF20CFF3E031D9D2C7208CE
:100948007304031DA82CA92C8B2C7708F3007608B8
:10095800F2000800F200721CB22CB32CB72C8312E0
:1009680003130816BA2C831203130812F21CBD2CA9
:10097800BE2CC02C8816C12C8812721DC42CC52C04
:10098800C72C0817C82C0813F21DCB2CCC2CCE2C46
:100998008817CF2C88130800FA00F801F901E52C14
:1009A80078087A07F7007708840000080A128A1185
:1009B800A3230A128A110130F8070318F90A003034
:1009C800F90778087A07F700770884008313000886
:1009D800031DEF2CF02CD42C0800F5008312031310
:1009E800081175080A128A11AE240A128A11831294
:1009F800031388151A30F400F830F300F30B022DB6
:100A0800F40B022D00008312031388110800F30071
:100A1800F2013A3073020318122D132D1B2D3030BA
:100A28007302031C182D192D1B2DF201F20A720CEA
:100A3800080000300A128A11F1240A128A110130C2
:100A48000A128A11F1240A128A110800640080012E
:0C0A5800840A04060319003404062B2D48
:02400E00F63F7B
:00000001FF
